:100000000C942A000C9447000C9447000C94470071
:100010000C9447000C9447000C9447000C94470044
:100020000C9447000C9447000C9447000C94470034
:100030000C9447000C9447000C9447000C94470024
:100040000C9447000C9447000C9447000C94470014
:100050000C94470011241FBECFE5D8E0DEBFCDBF12
:1000600010E0A0E6B0E0EAEAF6E002C005900D92EA
:10007000A436B107D9F720E0A4E6B0E001C01D9294
:10008000AB36B207E1F70E949B020C9453030C9429
:1000900000008BB31BBA8AB31ABA85B38F71806C18
:1000A00085BB8AE18A95F1F700C089B395B39F714A
:1000B000906495BBE7E5F2E03197F1F700C00000EE
:1000C0009AB39FEF9ABB08959BB31BBA9BB3892B3E
:1000D0008BBB85B38F71806885BB8AE18A95F1F708
:1000E00000C085B38F7185BB87E592E00197F1F77A
:1000F00000C000000895CF93DF93D82FC62F0E9431
:1001000049008823E4F38BB31BBA8BB3D82BDBBB3A
:1001100025B380E2C89FB0011124CB0180689F6F96
:10012000922F9F71892B85BB9AE19A95F1F700C0B8
:1001300085B38F71682B65BB87E592E00197F1F776
:1001400000C00000DF91CF9108952FEF89EF90E07C
:10015000215080409040E1F700C0000085B38F71CE
:1001600085BB84B3806E84BB8BB31BBA8AB38FEF1D
:100170008ABB8FEC97E00197F1F700C0000088E39D
:100180000E94640087E090E20197F1F700C0000050
:1001900088E30E94640087EC90E00197F1F700C0CB
:1001A000000088E30E94640087EC90E00197F1F77B
:1001B00000C0000088E30E94640060E082E00E94CA
:1001C0007B0060E08CE00E947B0060E081E00E94A8
:1001D0007B0060E086E00E947B000895A09A8AE19F
:1001E0008A95F1F700C0A19A8AE18A95F1F700C0DB
:1001F000A0988AE18A95F1F700C0A1988AE18A95D2
:10020000F1F700C08AE18A95F1F700C08AE18A958A
:10021000F1F700C08AE18A95F1F700C08AE18A957A
:10022000F1F700C00895A198A098A998A8980E94F5
:10023000EE000E94EE000895A1988AE18A95F1F7F8
:1002400000C0A0988AE18A95F1F700C0A19A8AE1DE
:100250008A95F1F700C0A09A8AE18A95F1F700C06B
:10026000089598E0882314F0A19A01C0A1982AE18A
:100270002A95F1F700C0A0982AE12A95F1F700C06D
:10028000A09A880F915071F7A1988AE18A95F1F7A9
:1002900000C0A0982AE12A95F1F700C083B3A09A84
:1002A000869581700895282FA19898E080E0880FA6
:1002B000A0983AE13A95F1F700C099998160A09A27
:1002C0003AE13A95F1F700C0915089F7211102C047
:1002D000A19A01C0A1989AE19A95F1F700C0A0985F
:1002E0003AE13A95F1F700C0A09A9AE19A95F1F7B0
:1002F00000C0A19808950E941C0180EA0E9431016B
:1003000082E00E9431010E941C0181EA0E943101B9
:1003100080E00E945301982F92959F70990F292F8A
:10032000220F220F920F8F70980F9093680080E039
:100330000E945301982F92959F70990F292F220F99
:10034000220F920F8F70980F9093690080E00E94A7
:100350005301982F92959F70990F292F220F220FEA
:10036000920F8F70980F90936A0080E00E94530163
:10037000982F9073969596959695292F220F220F78
:10038000920F282F2F70920F909367008295869579
:10039000869583708093640081E00E94530184FB02
:1003A000992790F9990F292F220F220F920F282FAA
:1003B0002F70920F90936500829586958770809339
:1003C00066000E94EE00089580916A00883110F066
:1003D00010926A00809169008C3310F010926900CD
:1003E000809168008C3310F0109268008091670053
:1003F000803210F01092670080916600873010F014
:1004000010926600809165008D3010F010926500AA
:1004100080916400843010F0109264000E941C01EE
:1004200080EA0E94310182E00E94310180E00E9456
:100430003101809169006AE070E090E00E9405035C
:100440009B0122953295307F3227207F3227822BE5
:100450000E94310180916A006AE070E090E00E94A1
:1004600005039B0122953295307F3227207F32276A
:10047000822B0E943101809167006AE070E090E079
:100480000E94050320916400AB0142955295507F74
:100490005427407F5427842B90E4299F90011124F6
:1004A000822B0E943101809165006AE070E090E04B
:1004B0000E94050320916600AB0142955295507F42
:1004C0005427407F5427842B90E2299F90011124C8
:1004D000822B0E9431010E94EE000895CF93DF939A
:1004E000EC018991882331F061E00E947B008991C1
:1004F0008111FACFDF91CF910895CF93DF93CDB7DC
:10050000DEB764970FB6F894DEBF0FBECDBF4AE0EA
:1005100050E0BE016F5F7F4F0E942D03CE01019618
:100520000E946E0264960FB6F894DEBF0FBECDBF78
:10053000DF91CF9108950E9413010E94A50087E1E9
:1005400080936A008BE3809369008FE1809367005A
:100550008CE0809365001092640086E080936600D2
:100560000E94E4010E947B0160E080E80E947B0021
:1005700080916A0090E00E947D0261E08AE30E941F
:100580007B008091690090E00E947D0261E08AE337
:100590000E947B008091680090E00E947D0280E6CE
:1005A00090E00E946E0260E080EC0E947B008091EF
:1005B000670090E00E947D0261E08EE20E947B0075
:1005C0008091650090E00E947D0261E08EE20E94D1
:1005D0007B008091640090E00E947D0261E080E2F7
:1005E0000E947B008091660090E00E947D0280E680
:1005F00090E00E946E022FEF81EE94E02150804047
:100600009040E1F700C00000ADCF97FB072E16F435
:10061000009407D077FD09D00E94190307FC05D08C
:100620003EF4909581959F4F0895709561957F4F09
:100630000895AA1BBB1B51E107C0AA1FBB1FA61729
:10064000B70710F0A61BB70B881F991F5A95A9F77B
:1006500080959095BC01CD010895FB019F0142302A
:1006600074F0453264F4642F77270E941903805D8B
:100670008A330CF0895D8193CB010097A1F710823A
:10068000C9010C944303DC01FC01672F71917723AE
:10069000E1F7329704C07C916D9370836291AE173D
:0A06A000BF07C8F30895F894FFCFD8
:0406AA0020202000EC
:00000001FF
