:1000000012C02CC02BC02AC029C028C027C026C0BF
:1000100025C024C023C022C021C020C01FC01EC0D4
:100020001DC01CC01BC011241FBECFE5D4E0DEBF25
:10003000CDBF10E0A0E6B0E0E4E0F2E002C0059041
:100040000D92A436B107D9F720E0A4E6B0E001C0D4
:100050001D92A636B207E1F77AD0D2C0D1CF80E2A6
:1000600080B9089516BE94EA96BF06B607FEFDCF86
:1000700091B1987F983079F483B984E886BF06B649
:1000800007FEFDCF91B1987F983139F081E090342F
:1000900029F480E0089581E0089580E0089583B90F
:1000A00084E886BF91B1987F81E0983209F480E0BE
:1000B000089584E986BF0895962F68B321E030E063
:1000C000082E02C0220F331F0A94E2F72095262340
:1000D000692F70E002C0660F771F8A95E2F7622BE6
:1000E00068BB0895962F67B321E030E0082E02C068
:1000F000220F331F0A94E2F720952623692F70E020
:1001000002C0660F771F8A95E2F7622B67BB0895DE
:10011000AB01BC01411551056105710561F080E03D
:1001200090E0DC0100000196A11DB11D48175907A0
:100130006A077B07B9F7089510BC89B988E18AB9C5
:100140008EE880BD08955D9BFECF8CB9089561E077
:1001500080E0C8DF61E081E0C5DF61E081E0ACDF25
:1001600087E6EADF61E080E0A7DF79DFC0E8D0E082
:100170008091640077DF8093650080916400E3DF05
:1001800080916500E0DF8FEFDEDF60E878E381E0FB
:1001900090E0BEDF80916500811106C060E08CDFD9
:1001A0008091650080936000809164008F5F8093F0
:1001B00064007FDF2197E1F68091620053DF82E8DF
:1001C000C2DF60E878E381E090E0A2DF8FE067DFE4
:1001D00083E8B9DF60E878E381E090E099DF69DFE8
:1001E00084E8B1DF60E878E381E090E091DF80911E
:1001F0006100A9DF60E878E381E090E089DFDCCF8F
:04020000F894FFCFA0
:0402040081801900DC
:00000001FF
