S01A00004153747564696F5F616363656C5F6D6574722E73726563E3
S113000012C019C018C017C016C015C014C013C040
S113001012C011C010C00FC00EC00DC00CC00BC068
S11300200AC009C008C011241FBECFE5D4E0DEBF5A
S1130030CDBF2CD03DC0E4CF962F68B321E030E093
S1130040082E02C0220F331F0A94E2F720952623BC
S1130050692F70E002C0660F771F8A95E2F7622B62
S113006068BB0895AB01BC014115510561057105DB
S113007061F080E090E0DC0100000196A11DB11D5B
S1130080481759076A077B07B9F70895B89A60E0DB
S113009080E0D2DF60E47DE083E090E0E3DF61E0D4
S11300A080E0CADF68E873E180E090E0DBDFEFCF57
S10700B0F894FFCFEE
S9030000FC
