:1000000012C02CC02BC02AC029C028C027C026C0BF
:1000100025C024C023C022C021C020C01FC01EC0D4
:100020001DC01CC01BC011241FBECFE5D4E0DEBF25
:10003000CDBF10E0A0E6B0E0E2ECF1E002C0059038
:100040000D92A236B107D9F720E0A2E6B0E001C0D8
:100050001D92A236B207E1F77AD0B1C0D1CF962F68
:1000600068B321E030E0082E02C0220F331F0A944B
:10007000E2F720952623692F70E002C0660F771FF4
:100080008A95E2F7622B68BB0895962F67B321E04B
:1000900030E0082E02C0220F331F0A94E2F72095A9
:1000A0002623692F70E002C0660F771F8A95E2F75A
:1000B000622B67BB0895AB01BC0141155105610579
:1000C000710561F080E090E0DC0100000196A11D67
:1000D000B11D481759076A077B07B9F7089510BC87
:1000E00089B988E18AB98EE880BD08955D9BFECF0D
:1000F0008CB9089516BE94EA96BF06B607FEFDCFEA
:10010000880F83B984E886BF06B607FEFDCF63B9C2
:1001100084E886BF06B607FEFDCF84E986BF089552
:1001200016BE94EA96BF06B607FEFDCF880F816023
:1001300083B984E886BF06B607FEFDCF84E886BF94
:1001400006B607FEFDCF83B194E996BF089561E03E
:1001500080E09BDF61E081E098DF61E081E07FDFAC
:1001600087E6BDDF61E080E07ADF8FE580B980EA75
:10017000BDDF81EABBDF82EAB9DF83EAB7DF60E097
:1001800080E06DDF60E075E38CE090E094DF61E09B
:1001900080E065DF60E573EC80E090E08CDF6FE08D
:1001A00080916100A7DF68EC70E080E090E083DF81
:1001B00080916100B5DF8093600098DFE0CFF89414
:0201C000FFCF6F
:0201C200AA1978
:00000001FF
