S01A00004153747564696F5F616363656C5F6D6574722E73726563E3
S113000012C02CC02BC02AC029C028C027C026C0BB
S113001025C024C023C022C021C020C01FC01EC0D0
S11300201DC01CC01BC011241FBECFE5D4E0DEBF21
S1130030CDBF10E0A0E6B0E0EEE9F2E002C005902A
S11300400D92A236B107D9F720E0A2E6B0E001C0D4
S11300501D92A336B207E1F7E8D01FC1D1CF962F86
S113006068B321E030E0082E02C0220F331F0A9447
S1130070E2F720952623692F70E002C0660F771FF0
S11300808A95E2F7622B68BB0895962F67B321E047
S113009030E0082E02C0220F331F0A94E2F72095A5
S11300A02623692F70E002C0660F771F8A95E2F756
S11300B0622B67BB0895AB01BC0141155105610575
S11300C0710561F080E090E0DC0100000196A11D63
S11300D0B11D481759076A077B07B9F7089510BC83
S11300E089B988E18AB98EE880BD08955D9BFECF09
S11300F08CB90895A59A85E38A95F1F70000A49A2E
S113010085E38A95F1F70000A59885E38A95F1F7D0
S11301100000A49885E38A95F1F70000109262002C
S11301209C9905C0809162008F5F809362009D99C5
S113013005C0809162008F5F8093620085E38A9599
S1130140F1F7000085E38A95F1F7000085E38A95CD
S1130150F1F7000085E38A95F1F700000895A4986B
S1130160A598AC98AD98C6DFC5DF0895A49885E33B
S11301708A95F1F70000A59885E38A95F1F70000C8
S1130180A49A85E38A95F1F70000A59A85E38A95F8
S1130190F1F70000089598E0882314F0A49A01C0B0
S11301A0A49825E32A95F1F70000A59825E32A955C
S11301B0F1F70000A59A880F915071F7A49885E390
S11301C08A95F1F70000A59825E32A95F1F7000038
S11301D083B3A59A829581700895282FA49898E0F6
S11301E080E0880FA59835E33A95F1F700009C99D3
S11301F08160A59A35E33A95F1F70000915089F7AB
S1130200211102C0A49A01C0A49895E39A95F1F72C
S11302100000A59835E33A95F1F70000A59A95E317
S11302209A95F1F70000A498089561E080E02DDF2D
S113023061E081E02ADF61E081E011DF87E64FDFE2
S113024061E080E00CDF80EA51DF81EA4FDF87DF85
S113025082EA4CDF83EA4ADF60E080E000DF60E0AE
S113026075E38CE090E027DF61E080E0F8DE60E594
S113027073EC80E090E01FDF8AE038DF77DF809165
S1130280610089DF8FE087DF81E0A7DF8093600072
S111029031DF809160002ADFDFCFF894FFCFCA
S105029EAA1A96
S9030000FC
