:1000000012C02CC02BC02AC029C028C027C026C0BF
:1000100025C024C023C022C021C020C01FC01EC0D4
:100020001DC01CC01BC011241FBECFE5D4E0DEBF25
:10003000CDBF10E0A0E6B0E0ECE8F1E002C0059032
:100040000D92A236B107D9F720E0A2E6B0E001C0D8
:100050001D92A236B207E1F74DD096C0D1CF962FB0
:1000600068B321E030E0082E02C0220F331F0A944B
:10007000E2F720952623692F70E002C0660F771FF4
:100080008A95E2F7622B68BB0895962F67B321E04B
:1000900030E0082E02C0220F331F0A94E2F72095A9
:1000A0002623692F70E002C0660F771F8A95E2F75A
:1000B000622B67BB0895AB01BC0141155105610579
:1000C000710561F080E090E0DC0100000196A11D67
:1000D000B11D481759076A077B07B9F7089510BC87
:1000E00089B988E18AB98EE880BD08955D9BFECF0D
:1000F0008CB9089561E080E0C8DF61E081E0C5DF90
:1001000061E081E0ACDF87E6EADF61E080E0A7DF65
:1001100011B882E180B960E080E0A1DF60E075E3C2
:100120008CE090E0C8DF61E080E099DF80E0DEDF16
:1001300060E375E780E090E0BEDF81E0D7DF60E359
:1001400075E780E090E0B7DF82E0D0DF60E375E73D
:1001500080E090E0B0DF83E0C9DF60E375E780E036
:1001600090E0A9DF84E0C2DF60E375E780E090E023
:10017000A2DF85E0BBDF60E375E780E090E09BDF16
:0C01800080916000B3DFC7CFF894FFCF80
:02018C008000F1
:00000001FF
