S01A00004153747564696F5F616363656C5F6D6574722E73726563E3
S113000012C02CC02BC02AC029C028C027C026C0BB
S113001025C024C023C022C021C020C01FC01EC0D0
S11300201DC01CC01BC011241FBECFE5D4E0DEBF21
S1130030CDBF10E0A0E6B0E0ECE9F2E002C005902C
S11300400D92A436B107D9F720E0A4E6B0E001C0D0
S11300501D92AA36B207E1F798D01EC1D1CF962FD0
S113006068B321E030E0082E02C0220F331F0A9447
S1130070E2F720952623692F70E002C0660F771FF0
S11300808A95E2F7622B68BB0895962F67B321E047
S113009030E0082E02C0220F331F0A94E2F72095A5
S11300A02623692F70E002C0660F771F8A95E2F756
S11300B0622B67BB0895AB01BC0141155105610575
S11300C0710561F080E090E0DC0100000196A11D63
S11300D0B11D481759076A077B07B9F7089510BC83
S11300E089B988E18AB98EE880BD08955D9BFECF09
S11300F08CB908958F7716BE94EA96BF06B607FEAC
S1130100FDCF880F83B984E886BF06B607FEFDCF0E
S113011063B984E886BF06B607FEFDCF43B984E819
S113012086BF06B607FEFDCF84E986BF08958F77A4
S113013016BE94EA96BF06B607FEFDCF982F990F18
S113014093B994E896BF06B607FEFDCF63B994E869
S113015096BF06B607FEFDCF94E996BF16BE94EA95
S113016096BF06B607FEFDCF880F816083B984E889
S113017086BF06B607FEFDCF84E886BF06B607FE37
S1130180FDCF83B194E996BF089561E080E07DDFFF
S113019061E081E07ADF61E081E061DF87E69FDF93
S11301A061E080E05CDF8FE580B940EC6FE1809135
S11301B06200A0DF47E960E2809162009BDF40E1DA
S11301C062E28091620096DF40EB63E2809162001C
S11301D091DF60E080E043DF60E87AE186E090E070
S11301E06ADF61E080E03BDF60E375E780E090E098
S11301F062DF6FE0809162009ADF809361006DE0BE
S11302008091620094DF8093600068E280916200D4
S11302108EDF8093690069E28091620088DF8093B9
S113022068006AE28091620082DF809367006BE27B
S1130230809162007CDF809366006CE280916200B2
S113024076DF809365006DE28091620070DF8093B9
S11302506400809161004ADF8091600047DF84E69A
S113026045DF8091690042DF809168003FDF85E6C9
S11302703DDF809167003ADF8091660037DF86E6D4
S113028035DF8091650032DF809164002FDF80913B
S10F029061008F5F2BDF9DCFF894FFCF3F
S107029CFFAA190098
S9030000FC
