S01A00004153747564696F5F616363656C5F6D6574722E73726563E3
S113000012C024C023C022C021C020C01FC01EC0F3
S11300101DC01CC01BC01AC019C018C017C016C010
S113002015C014C013C011241FBECFE5D4E0DEBF39
S1130030CDBF10E0A0E6B0E0EAE3F1E002C0059035
S11300400D92A036B107D9F74DD075C0D9CF962FF0
S113005068B321E030E0082E02C0220F331F0A9457
S1130060E2F720952623692F70E002C0660F771F00
S11300708A95E2F7622B68BB0895962F67B321E057
S113008030E0082E02C0220F331F0A94E2F72095B5
S11300902623692F70E002C0660F771F8A95E2F766
S11300A0622B67BB0895AB01BC0141155105610585
S11300B0710561F080E090E0DC0100000196A11D73
S11300C0B11D481759076A077B07B9F7089510BC93
S11300D089B988E18AB98EE880BD08955D9BFECF19
S11300E08CB9089561E080E0C8DF61E081E0C5DF9C
S11300F061E081E0ACDF87E6EADF61E080E0A7DF72
S113010080EAECDF81EAEADF82EAE8DF83EAE6DF1D
S113011060E080E09CDF60E075E38CE090E0C3DFAA
S113012061E080E094DF60E573EC80E090E0BBDFA9
S10D01308AE0D4DFEDCFF894FFCF8E
S9030000FC
